:200000000C94D0050C94F0050C94F0050C94F0050C94F0050C94F0050C94F0050C946606E1
:200020000C94F0050C94F0050C94F0050C94F0050C94F0050C94F0050C94F0050C94F00518
:200040000C94F0050C94F0050C94A5080C94F0050C94F0050C94F0050C94F0050C94F00540
:200060000C94F0050C94F0052D0C4A0C4A0C4A0C4A0C4A0C4A0C4A0C4A0C4A0C4A0C4A0C6B
:200080004A0C4A0C4A0C940A4A0CA80A4A0C4A0C7F094A0CE0094A0C410B080A4A0C4A0CE5
:2000A000D10A4A0C4A0C760A1D0A320AD50B850AE60A4A0CCD095B0A4A0CF509130BC409A7
:2000C000960B370C140C4A0C1B0C4A0C4A0C4A0CFC0A4A0C61099C096C0B4A0C4A0C5E09A8
:2000E0004A0CC30ACA0A4A0C4A0C4A0C070C470A540B890B8F09B509A40B74095E0BCB0BEF
:2001000007634236B79BD8A71A39685618AEBAAB558C1D3CB7CC5763BD6DEDFD753EF617A5
:200120007231BF000000803F08000000BE922449123EABAAAA2ABECDCCCC4C3E0000008033
:20014000BEABAAAAAA3E00000000BF000000803F0000000000084178D3BB4387D1133D1929
:200160000E3CC3BD4282AD2B3E68EC8276BED98FE1A93E4C80EFFFBE01C4FF7F3F000000A7
:20018000000020780D0A005278204C694665504F342043686172676520436F6E74726F6C28
:2001A0006C657220666F72204553502D3132302050535527732E20563A302E322E302E2001
:2001C0004A617370657220416F72616E676920323031342E20486176652061206E696365E0
:2001E000206461792038293A20000D0A00726561645F4D4350333232312066726F6D2070A8
:20020000726573737572652073656E736F722E20636F64652069733A0053657474696E671E
:200220002050494420736574706F696E7420746F3A20004144432072656164696E673A20B2
:2002400000546F67676C696E6720706F7765722070696E27730D0A0056783130300D0A5434
:20026000656D706572617475726520313A20006D410D0A4C696E6520566F6C746167653A20
:20028000200043757272656E743A200052656164696E6720616E616C6F6720646174613AC1
:2002A0000D0A00446F6E652E0D0A0053657474696E6720436F6E74726F6C20526567697363
:2002C00074657220283078312920746F3A2000446F6E652E2053657474696E672064617421
:2002E0006120666F726D61742E0D0A0053657474696E672053797374656D20546573746DFF
:200300006F6465202830783037292C20616E64206461746120666F726D6174202830783023
:200320003829202E2E2E0D0A004D696E6F72206E756D6265723A20004D616A6F72206E7597
:200340006D6265723A200047657474696E67204669726D77617265207265766973696F6EDF
:20036000206E756D62657273202830783036292E2E2E0D0A0053657474696E672046697222
:200380006D77617265206465627567206D6F6465202830783035292E2E2E0D0A00446F6E15
:2003A000652E0D0A0053657474696E6720546573746D6F6465202830783034292E2E2E0D3C
:2003C0000A0053657474696E6720635049446D617872656164207479706520746F2000638B
:2003E000504944206D61782072656164206973200053657474696E672074686520504944A6
:20040000207479706520746F20005468652050494420747970652069732000636F6D706CA0
:20042000657465640D0A005363616E6E696E67204932432062757320696E207265616420B7
:200440006D6F64653A200D0A005363616E6E696E67204932432062757320696E20777269A4
:200460007465206D6F64653A200D0A00466F7263696E6720496E707574732D3E43757272FB
:20048000656E7420746F3A2000466F7263696E6720496E707574732D3E566F6C7461676510
:2004A00020746F3A200053657474696E672074686520726573742074696D6520746F2000D0
:2004C00054686520726573742074696D65206973200053657474696E672074686520666C01
:2004E0006F61742074696D6520746F200054686520666C6F61742074696D65206973200084
:2005000050726F6365737320636F6E74726F6C20656E61626C65642C2064697361626C65D0
:200520002077697468202750272E0D0A0050726F6365737320636F6E74726F6C206469737C
:2005400061626C65642C20656E61626C65207769746820275031272E0D0A004C6F676769EE
:200560006E6720656E61626C65642C2064697361626C65207769746820274C272E0D0A00C0
:200580004C6F6767696E672064697361626C65642C20656E61626C65207769746820274C1A
:2005A00031272E0D0A0053657474696E67207468652074696D6520746F20005468652074B8
:2005C000696D65206973200053657474696E67207468652070726F6772616D206E756D629B
:2005E000657220746F2000546865206368617267652070726F6772616D206E756D62657295
:20060000206973200053657474696E6720746865206D6178696D756D2063757272656E743E
:2006200020746F2000546865206D6178696D756D2063757272656E742069732000536574ED
:2006400074696E6720746865206D6178696D756D20766F6C7461676520746F200054686513
:20066000206D6178696D756D20766F6C74616765206973200053657474696E6720746865EF
:2006800020666C6F617420766F6C7461676520746F200054686520666C6F617420766F6C27
:2006A00074616765206973200053657474696E67207468652063686172676520766F6C74CF
:2006C00061676520746F20005468652063686172676520766F6C746167652069732000539E
:2006E000657474696E6720746865206368617267652063757272656E7420746F2000546882
:2007000065206368617267652063757272656E74206973200053657474696E67207468656C
:20072000207263686172676520737461746520746F200054686520636861726765207374A7
:20074000617465206973200043656173696E6720746F206368617267652C205772696768AF
:200760007420414E43484F522C2053544F50212120005468652074696D652069733A2000F0
:2007800053657474696E6720746865206475747920746F200054686520647574792069730E
:2007A00020005374617465206F662063686172676520697320004168206973200054686597
:2007C00020766F6C7461676520697320005468652063757272656E74206973200048656C72
:2007E000702120417661696C61626C6520636F6D6D616E64732E0D0A202020202020202010
:20080000202020202054686520666F6C6C6F77696E672072657475726E732074686520630F
:20082000757272656E74207374617465200D0A202020202020202020202020200920633A3A
:200840002043757272656E740D0A202020202020202020202020200920763A20566F6C7440
:200860006167650D0A202020202020202020202020200920413A2041680D0A202020202070
:2008800020202020202020200920733A205374617465206F66206368617267650D0A20208B
:2008A00020202020202020202020200920643A2064757479206379636C65200D0A20202064
:2008C000202020202020202020200920743A2074696D65200D0A20202020202020202020BB
:2008E0002020200920583A2053746F7020616C6C200D0A20202020202020202020202020E7
:20090000436F6D6D616E64732061726520636173652073656E736574697665206C657474C2
:2009200065727320666F6C6C6F7765642062792061206E756D6265722028636F6D6D616E09
:200940006476616C7565292077697468206E6F2073706163650D0A202020202020202020B1
:200960002020202044656661756C7420636F6D6D616E6476616C75652069732030206966DB
:20098000206E6F7420676976656E0D0A202020202020202020202020200920533A20536568
:2009A00074206368617267652073746174650D0A20202020202020202020202020092043D5
:2009C0003A20536574206368617267652063757272656E740D0A202020202020202020208D
:2009E0002020200920563A205365742063686172676520766F6C746167650D0A202020205F
:200A00002020202020202020200920463A2053657420666C6F617420766F6C746167650D6C
:200A20000A2020202020202020202020202009204D3A2053657420766F6C74616765206D71
:200A400061780D0A2020202020202020202020202009204E3A205365742063757272656E5A
:200A600074206D61780D0A202020202020202020202020200920703A207365742070726F35
:200A80006772616D206E756D6265720D0A202020202020202020202020200920543A205325
:200AA00065742054696D65202873290D0A202020202020202020202020203120456E61624C
:200AC0006C652F302044697361626C653A0D0A2020202020202020202020202009204C3A72
:200AE000204C6F6767696E670D0A202020202020202020202020200920503A2050726F63F1
:200B000065737320636F6E74726F6C20656E61626C65200D0A00250D0A0041680D0A00416E
:200B2000783130300D0A0056783130300D0A00205761697420002D0020506944200020566A
:200B40006620002043737020002056737020002070776D200020416820002050726F677289
:200B6000657373200020762000206320006C2000412073746F7020636F6E646974696F6E17
:200B8000207761732062726561636865642E205368757474696E6720646F776E2E0D0A00DB
:200BA000822D8093EF0111241FBECFEFD8E0DEBFCDBF11E0A0E0B1E0E0E2F0E302C00590E4
:200BC0000D92A438B107D9F721E0A4E8B1E001C01D92AF3EB207E1F70E9406060C940E1892
:200BE0000C94000081E08093840185B190E2892785B985B190E1892785B985B198E08927D3
:200C000085B9089581E08093EB010895F89483B7817F83BF0E94840F789487E891E00E9431
:200C200090088091EF0190E00E949D0782E891E00E94900882EF95E00E945C0682E096E08E
:200C40000E94610682E59CE00E946E078BE02FEF33ED90E3215030409040E1F700C000002C
:200C6000A8958150A1F70E94761181E08093EC0183B7816083BF889583B78E7F83BF0E949F
:200C80000D09892B19F00E941209F9CF8091EB01882331F01092EB0180E091E00E947D11A4
:200CA00080918401882331F01092840180E091E00E94D10EA895DCCF909394018093930112
:200CC00008959093900180938F0108951F920F920FB60F9211242F933F934F935F936F932C
:200CE0007F938F939F93AF93BF93EF93FF938091890190918A01019690938A0180938901BD
:200D0000809187019091880101969093880180938701E0919101F09192013196F0939201BE
:200D2000E0939101309759F08091850190918601059728F010928601109285010995E0914B
:200D40008F01F0919001309759F08091870190918801499728F010928801109287010995B3
:200D60008091890190918A018D37910570F110928A011092890180918B0190918C01A0919C
:200D80008D01B0918E010196A11DB11D813821E5920721E0A207B10548F480938B0190931C
:200DA0008C01A0938D01B0938E0108C010928B0110928C0110928D0110928E01E091930188
:200DC000F0919401309709F00995FF91EF91BF91AF919F918F917F916F915F914F913F91FF
:200DE0002F910F900FBE0F901F90189510928A011092890110928B0110928C0110928D01E6
:200E000010928E0182E08093B00097E09093B100809370008CE78093B300089520916400C3
:200E200010926400219A623008F0229A9093870080938600109289001092880010928B00E6
:200E400010928A0080E880938000623028F08091800080628093800080E1809381008091B5
:200E600081008160809381000895823028F48091880090918900089580918A0090918B00EA
:200E80000895823028F47093890060938800089570938B0060938A0008950F931F938C01BA
:200EA00088E98093C10086E08093C20084E076956795579547958A95D1F720E030E0CB01BC
:200EC000BA01A90198010E948E16215031093093C5002093C4001F910F9108959093C7014C
:200EE0008093C60108959091C00095FFFCCF8093C6000895FF920F931F93CF93DF93182FC5
:200F0000D3E0C4E69AE0F92E812F6C2F0E945A16082F80E3800F0E9473070C9F1019112428
:200F20008C2F6F2D0E945A16C82FD15069F7DF91CF911F910F91FF900895BF92CF92DF9261
:200F4000EF92FF920F931F93CF93DF938C0125E0B22EC0E1D7E23AE0C32ED12CC801BE01FB
:200F60000E9466167B0180E3860F0E947307EC9EC001ED9E900DFC9E900D1124081B190B9D
:200F8000CE01B6010E946616EB01BA9439F7DF91CF911F910F91FF90EF90DF90CF90BF90F8
:200FA00008954F925F926F927F928F929F92AF92BF92CF92DF92EF92FF921F93CF93DF9362
:200FC00000D000D0CDB7DEB74B015C011AE0C12C4AECD42E4AE9E42E4BE3F42E5AE0452E4E
:200FE000512C612C712CC501B401A70196010E948E1680E3820F29833A834B835C830E949E
:20100000730729813A814B815C81C701B6010E944A16861A970AA80AB90AC701B601A301EE
:2010200092010E948E1669017A011150E1F60F900F900F900F90DF91CF911F91FF90EF90B0
:20104000DF90CF90BF90AF909F908F907F906F905F904F9008954F925F926F927F928F9268
:201060009F92AF92BF92CF92DF92EF92FF921F93CF93DF9300D000D0CDB7DEB74B015C01E1
:2010800015E060E1C62E67E2D62EE12CF12C7AE0472E512C612C712CC501B401A70196017F
:2010A0000E948E1680E3820F29833A834B835C830E94730729813A814B815C81C701B60137
:2010C0000E944A16861A970AA80AB90AC701B601A30192010E948E1669017A011150E1F63F
:2010E0000F900F900F900F90DF91CF911F91FF90EF90DF90CF90BF90AF909F908F907F902D
:201100006F905F904F900895CF93DF93EC018991882319F00E947307FACFDF91CF91089584
:20112000CF93DF93EC01CE01FE012491222331F02196FC0184910E947307F5CFDF91CF918C
:2011400008958AEE91E00C9490081F920F920FB60F9211242F933F934F935F936F937F9368
:201160008F939F93AF93BF93EF93FF932091AE013091AF014091C6008091AC019091AD017E
:20118000820F931F64E170E00E947A168E549E4FFC014083243131053CF081E090E090930B
:2011A000B1018093B00106C02F5F3F4F3093AF012093AE01FF91EF91BF91AF919F918F9112
:2011C0007F916F915F914F913F912F910F900FBE0F901F9018952091AE013091AF01211531
:2011E0003105C9F08091AC019091AD01FC01EE54FE4F4081215031093093AF012093AE01A6
:20120000019664E170E00E947A169093AD018093AC01842F089580E008958091AE019091B1
:20122000AF0108950E94EB088A3029F08D3019F0811118C012C08091950190919601FC019B
:20124000E956FE4F1082181619063CF4E091C601F091C70187E991E0099510929601109218
:20126000950108952091950130919601243131055CF4A9014F5F5F4F5093960140939501D8
:20128000F901E956FE4F80830895CF92DF92EF92FF921F93CF93DF936A017B01E90199272D
:2012A00087FD9095A92FB92FFC01BD97EC34F10508F0F0C2EC5CFF4F0C94CF168DED97E0A8
:2012C0000AC08DEC97E00E9490088A819B810E949D078FE19BE0DF91CF911F91FF90EF9034
:2012E000DF90CF900C9490088DEB97E00E949008888199810E949D0787E29BE0ECCF86EB46
:2013000097E00E9490088FA998AD68E077E00E946616CB010E949D078AE19BE0DCCF82EAD3
:2013200097E00E949008CD5BDF4F888190E00E949D0786E19BE0CFCF4115510561057105DF
:2013400041F485E997E00E94900881E00E94350796C280E897E00E949008C6010E949D077C
:20136000B60181E00E9441078CC282E797E00E94900860918B0170918C0180918D01909138
:201380008E010E942B087DC288E497E00E949008CF5BDF4F84E088837DC2CF5BDF4F4115D9
:2013A00051056105710531F483E397E00E9490088881EFC185E197E00E949008C88279C06C
:2013C000CC5BDF4F411551056105710539F48EEF96E00E9490088D819E8151C28FED96E0A4
:2013E0000E949008DE82CD8240C2CC5BDF4F411551056105710539F488EC96E00E949008D4
:201400008F8598893CC289EA96E00E9490082BC2CC5BDF4F411551056105710539F483E913
:2014200096E00E94900889899A8929C285E796E00E949008DA8AC98A18C2CC5BDF4F411584
:2014400051056105710539F48DE596E00E94900889859A8514C28DE396E00E949008DA8688
:20146000C98603C2CC5BDF4F411551056105710539F485E296E00E94900889819A81FFC152
:2014800085E096E00E949008DA82C982EEC1411551056105710539F487EE95E00E94900808
:2014A0008091EC0176C188EC95E00E949008C092EC018C2D6EC1411551056105710549F4E8
:2014C0008BEB95E00E94900880918B0190918C01D6C186EA95E00E949008C0928B01D092A6
:2014E0008C01E0928D01F0928E01BFC1413051056105710529F00E94770F80E895E0EBCE54
:201500000E94730F8BE595E0E6CE413051056105710529F00E947A118DE295E0DCCE0E94F5
:20152000761180E095E0D7CEEF96411551056105710539F48DEE94E00E9490086881798164
:2015400012C082ED94E00E949008D982C88214C0411551056105710549F480EC94E00E94DC
:2015600090086DAD7EAD80E090E00AC086EA94E00E949008DEAECDAEC701B60188279927E1
:201580000E94D1077EC189E894E00E949008D982C8826BC18CE694E00E949008DB82CA82D9
:2015A00064C189E494E00E9490086FE780E00E94B10D87E294E00E9490086FE780E00E9466
:2015C000930D0E94A1088BE194E085CE411551056105710539F48AE094E00E94900880910F
:2015E000EC0107C081EF93E00E949008C092EC018C2D0E947A0745C1411551056105710571
:2016000049F48FED93E00E94900880916F019091700135C182EC93E00E949008D09270016D
:20162000C0926F0122C181E791E00E9484088EE30E94E40C8C2D0E941C0D8FE30E942D0D29
:20164000C0E08C2F0E947A070E94A1080E942F0D0E947A070E94A108CF5FC53191F785E163
:201660000E947A070E94390D0E947A070E94A108DF91CF911F91FF90EF90DF90CF900C94F5
:20168000140DC0E08C2F0E947A070E94A1086C2F8C2D0E94430D90E00E949D070E94A10819
:2016A000CF5FCC3079F7F6C085EA93E00E94900888E10E9442128DE993E00DCE85E793E0BC
:2016C0000E9490086AEC71E088E10E9455128111E1C08091CA015DC087E493E00E94900873
:2016E00068EC71E088E10E9481128111D3C088E393E00E9490088091C80190E00E949D07DA
:201700000E94A10889E293E00E9490088091C90140C08CEE92E00E94900864E088E10E9416
:201720009E128111B7C08FEC92E0D5CD8BEA92E00E94900841E061E088E10E949C11811194
:20174000A9C083EA92E0C7CD8CE892E00E94900861ED71E088E10E94BC1181119BC082E8BF
:2017600092E00E9490088091D1019091D2010E949D078FE692E00E9490088091DD0190916F
:20178000DE010E949D0788E592E00E9490088091DF0190E074C061ED71E088E10E94BC11FF
:2017A0008091D1019091D2016AC0C9EED3E080E30E94920C83E00E94BF0C81E30E94B50C84
:2017C0000E94D00CF82E0E94D00C182F0E94DA0C0E94B70C812F90E0A0E0B0E06627782F4F
:2017E000892F9A2F6F0D711D811D911D0E94D1070E94A1089FEF21EE84E09150204080404B
:20180000E1F700C000002197209789F643C081E492E00E9490088BB198E089278BB98BB14A
:2018200090E289278BB936C083E392E00E9490080E94B80F24C0C9EED3E00E94B80F0E9478
:201840009D070E94A1088FE39CE90197F1F700C000002197209789F71DC089E192E00E9418
:201860009008CC5BDF4FD88ACF86C60108C08DEE91E00E9490086FEF8DE40E94680D0E9487
:201880009D07DF91CF911F91FF90EF90DF90CF900C94A108DF91CF911F91FF90EF90DF9002
:2018A000CF9008950F931F93CF93DF9300D0CDB7DEB78C011A8219824AE050E0BE016F5F70
:2018C0007F4F01960E94EF16AB01BC01E981FA818081811106C020E031E0F80180810E94A8
:2018E00045090F900F90DF91CF911F910F9108950F931F938B019C011092B900BA0180E0AC
:2019000090E0A90198010E948E16205131094109510956954795379527952093B8001F9115
:201920000F91089594EA9093BC009091BC0097FFFCCF9091B900987F983011F0903199F4C7
:201940008093BB0084E88093BC008091BC0087FFFCCF9091B900987F983119F081E0903478
:2019600019F480E0089581E008950C94920C84E98093BC008091BC0084FDFCCF089580931C
:20198000BB0084E88093BC008091BC0087FFFCCF9091B900987F81E0983209F480E008951D
:2019A00084EC8093BC008091BC0087FFFCCF8091BB00089584E88093BC008091BC0087FFD3
:2019C000FCCF8091BB00089594EA9093BC002FEF3FEF9091BC0097FD03C021153105E9F4AD
:2019E0009091B900987F983011F09031A1F48093BB0084E88093BC008FEF9FEF2091BC0055
:201A000027FD02C0009771F48091B900887F883139F0803429F081E0089521503109D9CF13
:201A200080E008950197EACF84E98093BC008091BC0084FDFCCF08958093BB0084E8809319
:201A4000BC008091BC0087FFFCCF9091B900987F81E0983209F480E008950C94E40C84EC96
:201A60008093BC008091BC0087FFFCCF8091BB00089584E88093BC008091BC0087FFFCCFB7
:201A80008091BB0008951F93CF93DF931F92CDB7DEB7182F880F69830E94920C6981811107
:201AA00011C06F3F19F0862F0E94BF0C812F880F81600E94B50C0E94390D89830E94B70C98
:201AC000898101C080E00F90DF91CF911F9108951F93CF93DF931F92CDB7DEB7182F880FF1
:201AE00069830E94E40C6981811116C06F3F19F0862F0E941C0D812F880F81600E942D0DDB
:201B00000E942F0D182F0E94390D89830E94140D898190E0912B02C080E090E00F90DF9112
:201B2000CF911F9108950F931F93CF93DF93182F062F011788F0C12FD0E0CE01880F991F06
:201B400081600E94E40C811105C0CE010E949D070E94A1081F5FEDCFDF91CF911F910F9101
:201B60000895CF93DF93C82FD62FDC1770F08C2F880F0E94E40C811106C08C2F90E00E949C
:201B80009D070E94A108CF5FF0CFDF91CF910895909164009E7F909364008F70662321F03A
:201BA000613019F0806401C0806C80937C0087EC80937A0080917A0086FDFCCF611107C059
:201BC0002091780030917900ACE4B4E006C02091780030917900A8E8B3E10E94D5162AE09A
:201BE00096958795779567952A95D1F7CB0108954F925F926F927F92AF92BF92CF92DF925E
:201C0000EF92FF920F931F93CF93DF93CDB7DEB72C970FB6F894DEBF0FBECDBF2B013C01FE
:201C200029833A834B835C83A801970169A170E080E090E0E9863A874B875C870E94641325
:201C40006D837E838F839887C601B50129853A854B855C850E94B016CA01B9010E946613BF
:201C60009B01AC016D8D7E8D8F8D98A10E941A146B017C0169817A818B819C8164197509FF
:201C8000860997090E9466139B01AC01C701B6010E941A142D813E814F8158850E947D1415
:201CA0003B015C016AA17BA18CA19DA10E9466136B017C019B01AC01B301C5010E942F134E
:201CC00087FF02C0630175016AA17BA18CA19DA190958095709561957F4F8F4F9F4F0E94DF
:201CE00066133B015C019B01AC01B601C7010E941614181614F063017501B601C7010E9411
:201D000033132C960FB6F894DEBF0FBECDBFDF91CF911F910F91FF90EF90DF90CF90BF9029
:201D2000AF907F906F905F904F900895CF92DF92EF92FF920F931F93CF93DF93E701261BB6
:201D4000370B480B590B6801EE24D7FCE094FE2CCA01B901A70196010E94B0166627772747
:201D60006C1B7D0B261737072CF4882777FD8095982F0EC02C173D0734F0BE01882777FD5F
:201D80008095982F05C0B901882777FD8095982FDF91CF911F910F91FF90EF90DF90CF90ED
:201DA00008950F931F93CF93DF93EC018091E601882309F493C08DE69BE00E949008609165
:201DC0008B0170918C0180918D0190918E010E942B0889E69BE00E9490088A819B810E94D8
:201DE0009D0785E69BE00E949008888199810E949D078AE59BE00E9490088091EC010E94F2
:201E00007A0785E59BE00E9490088FA998AD0E949D078FE49BE00E9490088CA99DA90E941A
:201E20009D0789E49BE00E9490088E010C5B1F4FF801878590890E949D0783E49BE00E9490
:201E40009008F801858196810E949D078EE39BE00E949008F801818992890E949D0788E399
:201E60009BE00E949008F801858D968D97FF0AC086E39BE00E949008F801858D968D9195AD
:201E8000819591090E949D078FE29BE00E9490088091EC01823031F08330B9F4EF96688187
:201EA000798102C06DAD7EAD80E090E000918B0110918C0120918D0130918E01601B710B80
:201EC000820B930B0E94D10703C080E00E947A07DF91CF911F910F910C94A108DF91CF91DE
:201EE0001F910F91089581E08093E60108951092E6010895259A249A239A539A559A8BB185
:201F0000877D8BB92C9A0895A89590E088E10FB6F894A89580936000909360000FBE0E940D
:201F2000F6060E947A0F40E054E264EF70E080E096E90E944D0740E054E260E573EC80E052
:201F400090E00E94780C61E08FEF9FE00E940E076EEF7FE081E00E94410798E288E10FB647
:201F6000F894A89580936000909360000FBE089560E080E00C94C80DBC01685F7F4F88E168
:201F80000C94BC11813031F4613011F45B9A08955B980895823031F4613011F45D9A089545
:201FA0005D9808958BB1613011F4886201C0877D8BB90895CF93DF93EC010E94BC0F688512
:201FC00079858A859B850E94641329E934E54AE95FE30E941A1426E63EE642EE54E40E9411
:201FE000CB120E9438137B836A830E94B80F998388838A819B8160E872E30E9466168FA982
:2020000098AD860F971F98AF8FABDF91CF9108958F929F92AF92BF92CF92DF92EF92FF927A
:202020000F931F93CF93DF93EC01888199814E0124E4820E911CF40121853285821793074F
:2020400038F44A815B81218132814217530760F0F401168E158E8EEF9FE09DAB8CAB60E05E
:2020600083E00E94C20FECC01091EC01123009F451C0133009F464C0113009F0D4C0F401D9
:20208000278530898217930730F18091E8018F5F8093E8018233B0F18EEF9FE09DAB8CABD2
:2020A000168E158E60E083E00E94C20F1092E70180918B0190918C019C01220F331F3EAFE1
:2020C0002DAFFE01FF96820F931F918380831092E80182E032C08091E701811113C08EEF7C
:2020E0009FE09DAB8CAB61E083E00E94C20F1093E701FFEF29E688E1F15020408040E1F7A1
:2021000000C00000F4012581368140E050E06A817B814CC08DAD9EADA0E0B0E040918B0178
:2021200050918C0160918D0170918E01481759076A077B0708F486C083E08093EC0182C089
:20214000FE01FF9680819181A0E0B0E040918B0150918C0160918D0170918E01481759072F
:202160006A077B0708F05FC08091E701811114C08EEF9FE09DAB8CAB61E083E00E94C20F64
:2021800081E08093E701FFEF23ED80E3F15020408040E1F700C000006A817B81F401278105
:2021A00030856217730778F040E050E080E090E0A9E1EA2EF12C0CE211E00E94960EF40116
:2021C000768F658F3FC0F4012189328940E050E06881798180E090E01F921F921F92EEE1C8
:2021E000EF93E1E0EF93EEE3EF93E0E8EF931F921F92AA24AA94EFE0BE2EC12CD12C1CE46A
:20220000E12E14E0F12E00E010E00E94F80DF401768F658F8DB79EB709960FB6F8949EBF51
:202220000FBE8DBF0FC08EEF9FE09DAB8CABF401168E158E60E083E00E94C20F1092E7015F
:202240001092EC018CA99DA9F401258D368D821B930B8E3FFFE09F0714F08DEF9FE09DAB36
:202260008CAB8CA99DA91816190614F01DAA1CAADF91CF911F910F91FF90EF90DF90CF90D2
:20228000BF90AF909F908F900895FC01DC01AC5BBF4F2281338111968D919C9112972817A5
:2022A000390748F42081318119968D919C911A9728173907A0F08EEF9FE095AB84AB5E9636
:2022C0001C921E925D9760E083E00E94C20F1092E7011092EC0180E79BE00C9490080895C6
:2022E000FC0164A975A980E00C94410781E08093E90108951092E9010895CF93DF93EC0189
:202300008091EA01811115C08091E901882389F081E08093EA01CE010E94DA0FCE010E9411
:202320000810CE010E947011CE010E9445111092EA01DF91CF910895CF9390E2699FB00145
:20234000112498E0499FA0011124C62FC42B880F0E94E40C81E00E941C0D8C2F0E941C0D53
:202360008C2F0E941C0D8C2F880F0E941C0D0E94140D80E0CF910895CF92DF92EF92FF92B6
:202380000F931F93CF93DF93CDB7DEB763970FB6F894DEBF0FBECDBFF82E8B01880F0E94D0
:2023A000E40C83E00E941C0D8F2D880F81600E942D0DCE0101967C016E0192E1C90ED11C66
:2023C0000E942F0DF70181937F01EC15FD05C1F70E94390D8B8B0E94140D99814A8150E002
:2023E000542F4427490F511D662757FD6095762FF80140835183628373839C814D8150E028
:20240000542F4427490F511D662757FD6095762F44835583668377839F81488550E0542F6B
:202420004427490F511D662757FD6095762F40875187628773879A852B8530E0322F2227E5
:20244000290F311D358724879C8596879D8597879E85908B9F85918B9889928B9989938B15
:202460008B89848B80E063960FB6F894DEBF0FBECDBFDF91CF911F910F91FF90EF90DF90FC
:20248000CF900895880F0E94E40C84E00E941C0D84E00E941C0D84E00E941C0D88E00E9480
:2024A0001C0D0E94140D80E008951F93CF93DF93182FEB01880F0E94E40C85E00E941C0D21
:2024C000812F880F81600E942D0D0E942F0D88830E942F0D89830E942F0D8A830E942F0D5C
:2024E0008B830E942F0D8C830E942F0D8D830E94390D8E830E94140D80E0DF91CF911F9157
:2025000008951F93CF93DF93182FEB01880F0E94E40C86E00E941C0D812F880F81600E9441
:202520002D0D0E942F0D88830E94390D89830E94140D80E0DF91CF911F910895CF93DF9370
:20254000C62FD82FDD0F8D2F0E94E40C87E00E941C0D87E00E941C0D87E00E941C0D84E14A
:202560000E941C0D0E94140D8D2F0E94E40C88E00E941C0D8C2F0E941C0D8C2F0E941C0D40
:202580008C2F880F0E941C0D0E94140D80E0DF91CF9108955058BB27AA270ED00DC1FED0B9
:2025A00030F003D120F031F49F3F11F41EF4F3C00EF4E095E7FBE9C0E92F0FD180F3BA170C
:2025C000620773078407950718F071F49EF527C10EF4E0950B2EBA2FA02D0B01B90190014C
:2025E0000C01CA01A0011124FF27591B99F0593F50F4503E68F11A16F040A22F232F342F61
:202600004427585FF3CF469537952795A795F0405395C9F77EF41F16BA0B620B730B840B79
:20262000BAF09150A1F0FF0FBB1F661F771F881FC2F70EC0BA0F621F731F841F48F4879576
:2026400077956795B795F7959E3F08F0B3CF9395880F08F09927EE0F97958795089571D0A9
:2026600008F481E0089504D06894B111D9C00895BCD088F09F5790F0B92F9927B751A0F0DE
:20268000D1F0660F771F881F991F1AF0BA95C9F712C0B13081F0C3D0B1E00895C0C0672FFB
:2026A000782F8827B85F39F0B93FCCF3869577956795B395D9F73EF490958095709561952B
:2026C0007F4F8F4F9F4F0895E89409C097FB3EF490958095709561957F4F8F4F9F4F99232F
:2026E000A9F0F92F96E9BB279395F695879577956795B795F111F8CFFAF4BB0F11F460FFB0
:202700001BC06F5F7F4F8F4F9F4F16C0882311F096E911C0772321F09EE8872F762F05C053
:20272000662371F096E8862F70E060E02AF09A95660F771F881FDAF7880F9695879597F9B2
:202740000895990F0008550FAA0BE0E8FEEF16161706E807F907C0F012161306E407F5074E
:2027600098F0621B730B840B950B39F40A2661F0232B242B252B21F408950A2609F4A1404C
:20278000A6958FEF811D811D089597F99F6780E870E060E008959FEF80EC089500240A9423
:2027A0001616170618060906089500240A9412161306140605060895092E0394000C11F462
:2027C000882352F0BB0F40F4BF2B11F460FF04C06F5F7F4F8F4F9F4F089557FD9058440F68
:2027E000551F59F05F3F71F04795880F97FB991F61F09F3F79F087950895121613061406B4
:20280000551FF2CF4695F1DF08C0161617061806991FF1CF86957105610508940895E89485
:20282000BB2766277727CB0197F908958ADF08F48FEF08950BD0C0CFB1DF28F0B6DF18F063
:20284000952309F0A2CFA7CF1124EACFC6DFA0F3959FD1F3950F50E0551F629FF001729F77
:20286000BB27F00DB11D639FAA27F00DB11DAA1F649F6627B00DA11D661F829F2227B00D8D
:20288000A11D621F739FB00DA11D621F839FA00D611D221F749F3327A00D611D231F849F60
:2028A000600D211D822F762F6A2F11249F5750408AF0E1F088234AF0EE0FFF1FBB1F661F19
:2028C000771F881F91505040A9F79E3F510570F05CCFA6CF5F3FECF3983EDCF3869577952E
:2028E0006795B795F795E7959F5FC1F7FE2B880F911D9695879597F90895FA01EE0FFF1FDA
:2029000030962105310599F16115710561F48038BFE39B0749F168949038810561F0803841
:20292000BFEF9B0741F0992342F5FF3FE1053105210511F1E8940894E795D901AA2329F449
:20294000AB2FBE2FF85FD0F310C0FF5F70F4A695E0F7F73950F019F0FF3A38F49F779F93CC
:202960000CD00F9007FC905808953EF014CF60E070E080E89FE308954FE79F775F934F930C
:202980003F932F939ED02F913F914F915F9152DF05C019F40EF0F9CE42CFFDCE26DFC8F371
:2029A0009638C0F707F80F92E8942BE33AEA48EB5FE74EDF0F920F920F924DB75EB70F9201
:2029C000C0D0E0E0F1E016D04F915F91EF91FF91E595EE1FFF1F49F0FE57E0684427EE0F2D
:2029E000441FFA95E1F74195550B32D00F9007FE26C00895DF93CF931F930F93FF92EF9274
:202A0000DF927B018C01689405C0DA2EEF011EDFFE01E894A5912591359145915591AEF3FC
:202A2000EF01CADDFE019701A801DA9479F7DF90EF90FF900F911F91CF91DF9108959B010B
:202A4000AC0160E070E080E89FE3AEC09ECE14C1CCDEE8F39923D9F3940F511DBBF39150F3
:202A6000504094F059F0882332F0660F771F881F91505040C1F79E3F510544F7880F911D9E
:202A80009695879597F908955F3FACF0983E9CF0BB27869577956795B79508F4B1609395A0
:202AA000C1F7BB0F58F711F460FFE8CF6F5F7F4F8F4F9F4FE3CFB4CE0EF0DEC06CCE6894BC
:202AC00064CE93DEC8F39923D1F3C6F3DF93CF931F930F93FF92C92FDD2788232AF021972D
:202AE000660F771F881FDAF720E030E040E85FEB9FE3883920F0803E30F021968F774BDDBB
:202B0000E8E2F1E003C047DDE5E5F1E073DF8B01BE01EC01FB2E6F5771097595771F880B72
:202B2000990BD4DD28E132E741E35FE38FDEAF2D9801AE01FF900F911F91CF91DF913CDD5F
:202B40003BCEFA01DC01AA0FBB1F9B01AC01BF5728F422273327442750781FC0B75188F44D
:202B6000AB2F0024469537952795011CA395D2F3002069F0220F331F441FB395DAF30DD089
:202B800009CD61307105A0E88A07B94630F49B01AC016627772788279078309621F0208377
:202BA00031834283538308950CD006CEFEDD40F0F5DD30F021F45F3F19F0E7CD511130CEAC
:202BC000EACD0BDE98F39923C9F35523B1F3951B550BBB27AA2762177307840738F09F5FCF
:202BE0005F4F220F331F441FAA1FA9F333D00E2E3AF0E0E830D091505040E695001CCAF7E2
:202C000029D0FE2F27D0660F771F881FBB1F261737074807AB07B0E809F0BB0B802DBF01CB
:202C2000FF2793585F4F2AF09E3F510568F0ADCDF7CD5F3FECF3983EDCF3869577956795AD
:202C4000B795F7959F5FC9F7880F911D9695879597F90895E1E0660F771F881FBB1F62175F
:202C600073078407BA0720F0621B730B840BBA0BEE1F88F7E09508959F3F31F0915020F49D
:202C8000879577956795B795880F911D9695879597F90895DB018F939F930E94E416BF91EF
:202CA000AF91A29F800D911DA39F900DB29F900D11240895991B79E004C0991F961708F08B
:202CC000961B881F7A95C9F780950895AA1BBB1B51E107C0AA1FBB1FA617B70710F0A61BA8
:202CE000B70B881F991F5A95A9F780959095BC01CD01089597FB072E16F4009407D077FD12
:202D000009D00E94661607FC05D03EF4909581959F4F0895709561957F4F0895A1E21A2EBB
:202D2000AA1BBB1BFD010DC0AA1FBB1FEE1FFF1FA217B307E407F50720F0A21BB30BE40B8B
:202D4000F50B661F771F881F991F1A9469F760957095809590959B01AC01BD01CF01089543
:202D6000052E97FB1EF400940E94C71657FD07D00E948E1607FC03D04EF40C94C71650957E
:202D80004095309521953F4F4F4F5F4F089590958095709561957F4F8F4F9F4F0895EE0F03
:202DA000FF1F0590F491E02D0994A29FB001B39FC001A39F700D811D1124911DB29F700D1E
:202DC000811D1124911D08950E94D516A59F900DB49F900DA49F800D911D112408952F9266
:202DE0003F925F926F927F928F929F92AF92BF92CF92DF92EF92FF920F931F93CF93DF930F
:202E00008B01EA016115710521F0DB018C9311969C93209739F09E012250310923323105B7
:202E200008F0D8C07C016701BFEFCB1ADB0A5601F7016080862D90E00E940318892B11F0E1
:202E40007601F1CFFDE26F120AC0570182E0A80EB11CD70111966C90772473940BC0BBE24F
:202E60006B1207C05701E2E0AE0EB11CD70111966C90712CCE018F7E892B89F4B0E36B1236
:202E800037C0F50180818F7D8835D1F46180F2E0AF0EB11C872D8260782EC0E1D0E0CA30F2
:202EA000D10551F1C031D10521F0C830D10599F409C0CC24CA94DC2CEC2CAFE0FA2E22C0F7
:202EC000209769F7C8E0D0E0CC24CA94DC2CEC2CFFE1FF2E17C06FEF7FEFCB019E0144278F
:202EE00037FD4095542F0E948E1669017A010AC02097A9F6CAE0D0E0E9E9CE2EDC2CEC2CB3
:202F0000E9E1FE2EF50160E020E030E0A9014E01AA2497FCA094BA2C1F0170ED572E560C9D
:202F2000A9E0A51570F48FEB860D8A3118F499EC592E06C08FE9860D8A3148F589EA582E48
:202F4000560C852D90E08C179D070CF56F3FD9F0C216D306E406F50698F0C501B4010E94F3
:202F60004A169B01AC01852D90E0A0E0B0E0280F391F4A1F5B1F281739074A075B0710F4CE
:202F80006FEF01C061E03196D1016C90C5CF0115110551F0662311F0319703C071FE04C0F3
:202FA0003297D801ED93FC9370FE07C050954095309521953F4F4F4F5F4F67FF10C082E282
:202FC00090E09093EE018093ED016FEF7FEF8FEF9FEF07C060E070E080E090E002C0B901F3
:202FE000CA01DF91CF911F910F91FF90EF90DF90CF90BF90AF909F908F907F906F905F9031
:203000003F902F900895911106C0803219F089508550D0F70895992788270895F894FFCFEA
:20302000000000000000000000000000000000000000000000000000000000000000000090
:203040000000000000000000000000000000000000000000FE0F140000000000000000004F
:203060000000000001B888AC0D3075204E0D046C200B04F503AE03240046002C01C800325D
:2030800000000001000000000003000000030030754D756C746920706172742064617461E8
:2030A0003A0A0D00FFFFFFFFFFFFFFFFFFFFFFFFFFFFFFFFFFFFFFFFFFFFFFFFFFFFFFFFDB
:2030C000FFFFFFFFFFFFFFFFFFFFFFFFFFFFFFFFFFFFFFFFFFFFFFFFFFFFFFFFFFFFFFFF10
:2030E000FFFFFFFFFFFFFFFFFFFFFFFFFFFFFFFFFFFFFFFFFFFFFFFFFFFFFFFFFFFFFFFFF0
:20310000FFFFFFFFFFFFFFFFFFFFFFFFFFFFFFFFFFFFFFFFFFFFFFFFFFFFFFFFFFFFFFFFCF
:20312000FFFFFFFFFFFFFFFFFFFFFFFFFFFFFFFFFFFFFFFFFFFFFFFFFFFFFFFFFFFFFFFFAF
:207E00001F92CDB7DEB7112484B714BE982F9D7009F0D7D085E08093810082E08093C000B4
:207E200088E18093C10086E08093C20080E18093C4008EE0B1D0259A26E080E39CEF31E0DF
:207E4000909385008093840036BBB09BFECF1D9AA8952150A9F7812C912C93E0F92EEE24BF
:207E6000E39425E0D22E31E1C32E8AD0813479F487D0898397D08981823811F482E005C04D
:207E8000813811F486E001C083E073D06FC0823411F484E103C0853419F485E08BD066C099
:207EA000853541F46DD0882E6BD0912C982A880C991C5BC0863521F484E07CD080E0E5CF2E
:207EC000843609F036C05CD05BD0B82E59D0A82E00E011E055D0F80181938F01BE12FACF91
:207EE00061D0F5E4AF1201C0FFCFF401F7BEE89507B600FCFDCFB401A0E0B1E02C91129651
:207F0000AD0141505109FA01808130E0382BFB010901E7BEE89511246E5F7F4FBA12EECFD8
:207F2000F401D7BEE89507B600FCFDCFC7BEE8951DC0843769F424D023D0B82E21D032D0FE
:207F40008401F80185918F0114D0BA94D1F70EC0853739F427D08EE10CD085E90AD08FE053
:207F600094CF813511F488E017D01CD080E101D07CCF9091C00095FFFCCF8093C600089575
:207F80008091C00087FFFCCF8091C00084FD01C0A8958091C6000895E0E6F0E098E19083D9
:207FA00080830895EDDF803219F088E0F5DFFFCF84E1DFCFCF93C82FE3DFC150E9F7CF9111
:207FC000F1CF282E80E0E8DFEE27FF270994FFFFFFFFFFFFFFFFFFFFFFFFFFFFFFFFFFFF9E
:207FE000FFFFFFFFFFFFFFFFFFFFFFFFFFFFFFFFFFFFFFFFFFFFFFFFFFFFFFFFFFFF020697
:00000001FF
